{
  "_format": "hh-sol-artifact-1",
  "contractName": "WavePortal",
  "sourceName": "contracts/WavePortal.sol",
  "abi": [
    {
      "inputs": [],
      "stateMutability": "payable",
      "type": "constructor"
    },
    {
      "anonymous": false,
      "inputs": [
        {
          "indexed": true,
          "internalType": "address",
          "name": "from",
          "type": "address"
        },
        {
          "indexed": false,
          "internalType": "uint256",
          "name": "timestamp",
          "type": "uint256"
        },
        {
          "indexed": false,
          "internalType": "string",
          "name": "message",
          "type": "string"
        }
      ],
      "name": "NewWave",
      "type": "event"
    },
    {
      "inputs": [],
      "name": "getAllWaves",
      "outputs": [
        {
          "components": [
            {
              "internalType": "address",
              "name": "waver",
              "type": "address"
            },
            {
              "internalType": "uint256",
              "name": "timestamp",
              "type": "uint256"
            },
            {
              "internalType": "string",
              "name": "message",
              "type": "string"
            }
          ],
          "internalType": "struct WavePortal.Wave[]",
          "name": "",
          "type": "tuple[]"
        }
      ],
      "stateMutability": "view",
      "type": "function"
    },
    {
      "inputs": [],
      "name": "getTotalWaves",
      "outputs": [
        {
          "internalType": "uint256",
          "name": "",
          "type": "uint256"
        }
      ],
      "stateMutability": "view",
      "type": "function"
    },
    {
      "inputs": [
        {
          "internalType": "address",
          "name": "",
          "type": "address"
        }
      ],
      "name": "lastWaveTime",
      "outputs": [
        {
          "internalType": "uint256",
          "name": "",
          "type": "uint256"
        }
      ],
      "stateMutability": "view",
      "type": "function"
    },
    {
      "inputs": [
        {
          "internalType": "string",
          "name": "_message",
          "type": "string"
        }
      ],
      "name": "wave",
      "outputs": [],
      "stateMutability": "nonpayable",
      "type": "function"
    }
  ],
  "bytecode": "0x60806040526200004f6040518060400160405280600d81526020017f4e657720436f6e747261637421000000000000000000000000000000000000008152506200006d60201b620006671760201c565b6200006160006200011060201b60201c565b60018190555062000304565b6200010d8160405160240162000084919062000205565b6040516020818303038152906040527f41304fac000000000000000000000000000000000000000000000000000000007bffffffffffffffffffffffffffffffffffffffffffffffffffffffff19166020820180517bffffffffffffffffffffffffffffffffffffffffffffffffffffffff83818316178352505050506200014260201b60201c565b50565b6000606482444262000123919062000262565b6200012f919062000262565b6200013b9190620002cc565b9050919050565b60008151905060006a636f6e736f6c652e6c6f679050602083016000808483855afa5050505050565b600081519050919050565b600082825260208201905092915050565b60005b83811015620001a75780820151818401526020810190506200018a565b60008484015250505050565b6000601f19601f8301169050919050565b6000620001d1826200016b565b620001dd818562000176565b9350620001ef81856020860162000187565b620001fa81620001b3565b840191505092915050565b60006020820190508181036000830152620002218184620001c4565b905092915050565b6000819050919050565b7f4e487b7100000000000000000000000000000000000000000000000000000000600052601160045260246000fd5b60006200026f8262000229565b91506200027c8362000229565b925082820190508082111562000297576200029662000233565b5b92915050565b7f4e487b7100000000000000000000000000000000000000000000000000000000600052601260045260246000fd5b6000620002d98262000229565b9150620002e68362000229565b925082620002f957620002f86200029d565b5b828206905092915050565b6114a480620003146000396000f3fe608060405234801561001057600080fd5b506004361061004c5760003560e01c806327ad90b214610051578063449d46c0146100815780639a2cdc081461009d578063bd43a908146100bb575b600080fd5b61006b6004803603810190610066919061099e565b6100d9565b60405161007891906109e4565b60405180910390f35b61009b60048036038101906100969190610b45565b6100f1565b005b6100a56104cb565b6040516100b291906109e4565b60405180910390f35b6100c3610516565b6040516100d09190610d3d565b60405180910390f35b60036020528060005260406000206000915090505481565b42610384600360003373ffffffffffffffffffffffffffffffffffffffff1673ffffffffffffffffffffffffffffffffffffffff1681526020019081526020016000205461013f9190610d8e565b1061017f576040517f08c379a000000000000000000000000000000000000000000000000000000000815260040161017690610e1f565b60405180910390fd5b42600360003373ffffffffffffffffffffffffffffffffffffffff1673ffffffffffffffffffffffffffffffffffffffff168152602001908152602001600020819055506000808154809291906101d590610e3f565b919050555061021a6040518060400160405280601781526020017f257320776176656420772f206d657373616765202573210000000000000000008152503383610700565b600260405180606001604052803373ffffffffffffffffffffffffffffffffffffffff16815260200142815260200183815250908060018154018082558091505060019003906000526020600020906003020160009091909190915060008201518160000160006101000a81548173ffffffffffffffffffffffffffffffffffffffff021916908373ffffffffffffffffffffffffffffffffffffffff1602179055506020820151816001015560408201518160020190816102dc9190611093565b5050503373ffffffffffffffffffffffffffffffffffffffff167f5f7e16dc676677766a70e9c5628aa6c54ddb8b6e5188e2ae1e1f17f1ffbea716428360405161032792919061119e565b60405180910390a261033a60015461079f565b6001819055506103816040518060400160405280601681526020017f52616e646f6d20232067656e6572617465643a202564000000000000000000008152506001546107cb565b603260015410156104c8576103cb6040518060400160405280600781526020017f257320776f6e210000000000000000000000000000000000000000000000000081525033610867565b6000655af3107a4000905047811115610419576040517f08c379a000000000000000000000000000000000000000000000000000000000815260040161041090611240565b60405180910390fd5b60003373ffffffffffffffffffffffffffffffffffffffff168260405161043f90611291565b60006040518083038185875af1925050503d806000811461047c576040519150601f19603f3d011682016040523d82523d6000602084013e610481565b606091505b50509050806104c5576040517f08c379a00000000000000000000000000000000000000000000000000000000081526004016104bc90611318565b60405180910390fd5b50505b50565b600061050e6040518060400160405280601781526020017f5765206861766520256420746f74616c207761766573210000000000000000008152506000546107cb565b600054905090565b60606002805480602002602001604051908101604052809291908181526020016000905b8282101561065e57838290600052602060002090600302016040518060600160405290816000820160009054906101000a900473ffffffffffffffffffffffffffffffffffffffff1673ffffffffffffffffffffffffffffffffffffffff1673ffffffffffffffffffffffffffffffffffffffff168152602001600182015481526020016002820180546105cd90610eb6565b80601f01602080910402602001604051908101604052809291908181526020018280546105f990610eb6565b80156106465780601f1061061b57610100808354040283529160200191610646565b820191906000526020600020905b81548152906001019060200180831161062957829003601f168201915b5050505050815250508152602001906001019061053a565b50505050905090565b6106fd8160405160240161067b9190611338565b6040516020818303038152906040527f41304fac000000000000000000000000000000000000000000000000000000007bffffffffffffffffffffffffffffffffffffffffffffffffffffffff19166020820180517bffffffffffffffffffffffffffffffffffffffffffffffffffffffff8381831617835250505050610903565b50565b61079a83838360405160240161071893929190611369565b6040516020818303038152906040527fe0e9ad4f000000000000000000000000000000000000000000000000000000007bffffffffffffffffffffffffffffffffffffffffffffffffffffffff19166020820180517bffffffffffffffffffffffffffffffffffffffffffffffffffffffff8381831617835250505050610903565b505050565b600060648244426107b09190610d8e565b6107ba9190610d8e565b6107c491906113dd565b9050919050565b61086382826040516024016107e192919061140e565b6040516020818303038152906040527fb60e72cc000000000000000000000000000000000000000000000000000000007bffffffffffffffffffffffffffffffffffffffffffffffffffffffff19166020820180517bffffffffffffffffffffffffffffffffffffffffffffffffffffffff8381831617835250505050610903565b5050565b6108ff828260405160240161087d92919061143e565b6040516020818303038152906040527f319af333000000000000000000000000000000000000000000000000000000007bffffffffffffffffffffffffffffffffffffffffffffffffffffffff19166020820180517bffffffffffffffffffffffffffffffffffffffffffffffffffffffff8381831617835250505050610903565b5050565b60008151905060006a636f6e736f6c652e6c6f679050602083016000808483855afa5050505050565b6000604051905090565b600080fd5b600080fd5b600073ffffffffffffffffffffffffffffffffffffffff82169050919050565b600061096b82610940565b9050919050565b61097b81610960565b811461098657600080fd5b50565b60008135905061099881610972565b92915050565b6000602082840312156109b4576109b3610936565b5b60006109c284828501610989565b91505092915050565b6000819050919050565b6109de816109cb565b82525050565b60006020820190506109f960008301846109d5565b92915050565b600080fd5b600080fd5b6000601f19601f8301169050919050565b7f4e487b7100000000000000000000000000000000000000000000000000000000600052604160045260246000fd5b610a5282610a09565b810181811067ffffffffffffffff82111715610a7157610a70610a1a565b5b80604052505050565b6000610a8461092c565b9050610a908282610a49565b919050565b600067ffffffffffffffff821115610ab057610aaf610a1a565b5b610ab982610a09565b9050602081019050919050565b82818337600083830152505050565b6000610ae8610ae384610a95565b610a7a565b905082815260208101848484011115610b0457610b03610a04565b5b610b0f848285610ac6565b509392505050565b600082601f830112610b2c57610b2b6109ff565b5b8135610b3c848260208601610ad5565b91505092915050565b600060208284031215610b5b57610b5a610936565b5b600082013567ffffffffffffffff811115610b7957610b7861093b565b5b610b8584828501610b17565b91505092915050565b600081519050919050565b600082825260208201905092915050565b6000819050602082019050919050565b610bc381610960565b82525050565b610bd2816109cb565b82525050565b600081519050919050565b600082825260208201905092915050565b60005b83811015610c12578082015181840152602081019050610bf7565b60008484015250505050565b6000610c2982610bd8565b610c338185610be3565b9350610c43818560208601610bf4565b610c4c81610a09565b840191505092915050565b6000606083016000830151610c6f6000860182610bba565b506020830151610c826020860182610bc9565b5060408301518482036040860152610c9a8282610c1e565b9150508091505092915050565b6000610cb38383610c57565b905092915050565b6000602082019050919050565b6000610cd382610b8e565b610cdd8185610b99565b935083602082028501610cef85610baa565b8060005b85811015610d2b5784840389528151610d0c8582610ca7565b9450610d1783610cbb565b925060208a01995050600181019050610cf3565b50829750879550505050505092915050565b60006020820190508181036000830152610d578184610cc8565b905092915050565b7f4e487b7100000000000000000000000000000000000000000000000000000000600052601160045260246000fd5b6000610d99826109cb565b9150610da4836109cb565b9250828201905080821115610dbc57610dbb610d5f565b5b92915050565b600082825260208201905092915050565b7f576169742031356d000000000000000000000000000000000000000000000000600082015250565b6000610e09600883610dc2565b9150610e1482610dd3565b602082019050919050565b60006020820190508181036000830152610e3881610dfc565b9050919050565b6000610e4a826109cb565b91507fffffffffffffffffffffffffffffffffffffffffffffffffffffffffffffffff8203610e7c57610e7b610d5f565b5b600182019050919050565b7f4e487b7100000000000000000000000000000000000000000000000000000000600052602260045260246000fd5b60006002820490506001821680610ece57607f821691505b602082108103610ee157610ee0610e87565b5b50919050565b60008190508160005260206000209050919050565b60006020601f8301049050919050565b600082821b905092915050565b600060088302610f497fffffffffffffffffffffffffffffffffffffffffffffffffffffffffffffffff82610f0c565b610f538683610f0c565b95508019841693508086168417925050509392505050565b6000819050919050565b6000610f90610f8b610f86846109cb565b610f6b565b6109cb565b9050919050565b6000819050919050565b610faa83610f75565b610fbe610fb682610f97565b848454610f19565b825550505050565b600090565b610fd3610fc6565b610fde818484610fa1565b505050565b5b8181101561100257610ff7600082610fcb565b600181019050610fe4565b5050565b601f8211156110475761101881610ee7565b61102184610efc565b81016020851015611030578190505b61104461103c85610efc565b830182610fe3565b50505b505050565b600082821c905092915050565b600061106a6000198460080261104c565b1980831691505092915050565b60006110838383611059565b9150826002028217905092915050565b61109c82610bd8565b67ffffffffffffffff8111156110b5576110b4610a1a565b5b6110bf8254610eb6565b6110ca828285611006565b600060209050601f8311600181146110fd57600084156110eb578287015190505b6110f58582611077565b86555061115d565b601f19841661110b86610ee7565b60005b828110156111335784890151825560018201915060208501945060208101905061110e565b86831015611150578489015161114c601f891682611059565b8355505b6001600288020188555050505b505050505050565b600061117082610bd8565b61117a8185610dc2565b935061118a818560208601610bf4565b61119381610a09565b840191505092915050565b60006040820190506111b360008301856109d5565b81810360208301526111c58184611165565b90509392505050565b7f547279696e6720746f207769746864726177206d6f7265206d6f6e657920746860008201527f616e2074686520636f6e74726163742068617300000000000000000000000000602082015250565b600061122a603383610dc2565b9150611235826111ce565b604082019050919050565b600060208201905081810360008301526112598161121d565b9050919050565b600081905092915050565b50565b600061127b600083611260565b91506112868261126b565b600082019050919050565b600061129c8261126e565b9150819050919050565b7f4661696c656420746f207769746864726177206d6f6e65792066726f6d20636f60008201527f6e74726163740000000000000000000000000000000000000000000000000000602082015250565b6000611302602683610dc2565b915061130d826112a6565b604082019050919050565b60006020820190508181036000830152611331816112f5565b9050919050565b600060208201905081810360008301526113528184611165565b905092915050565b61136381610960565b82525050565b600060608201905081810360008301526113838186611165565b9050611392602083018561135a565b81810360408301526113a48184611165565b9050949350505050565b7f4e487b7100000000000000000000000000000000000000000000000000000000600052601260045260246000fd5b60006113e8826109cb565b91506113f3836109cb565b925082611403576114026113ae565b5b828206905092915050565b600060408201905081810360008301526114288185611165565b905061143760208301846109d5565b9392505050565b600060408201905081810360008301526114588185611165565b9050611467602083018461135a565b939250505056fea264697066735822122085b7084be758ded983dacb8778470a438494d954e581e209b17b0ad8cba6031164736f6c63430008110033",
  "linkReferences": {},
  "deployedLinkReferences": {}
}