{
  "_format": "hh-sol-artifact-1",
  "contractName": "MyEpicNFT",
  "sourceName": "contracts/MyEpicNFT.sol",
  "abi": [
    {
      "inputs": [],
      "stateMutability": "nonpayable",
      "type": "constructor"
    },
    {
      "anonymous": false,
      "inputs": [
        {
          "indexed": true,
          "internalType": "address",
          "name": "owner",
          "type": "address"
        },
        {
          "indexed": true,
          "internalType": "address",
          "name": "approved",
          "type": "address"
        },
        {
          "indexed": true,
          "internalType": "uint256",
          "name": "tokenId",
          "type": "uint256"
        }
      ],
      "name": "Approval",
      "type": "event"
    },
    {
      "anonymous": false,
      "inputs": [
        {
          "indexed": true,
          "internalType": "address",
          "name": "owner",
          "type": "address"
        },
        {
          "indexed": true,
          "internalType": "address",
          "name": "operator",
          "type": "address"
        },
        {
          "indexed": false,
          "internalType": "bool",
          "name": "approved",
          "type": "bool"
        }
      ],
      "name": "ApprovalForAll",
      "type": "event"
    },
    {
      "anonymous": false,
      "inputs": [
        {
          "indexed": false,
          "internalType": "address",
          "name": "sender",
          "type": "address"
        },
        {
          "indexed": false,
          "internalType": "uint256",
          "name": "tokenId",
          "type": "uint256"
        }
      ],
      "name": "NewEpicNFTMinted",
      "type": "event"
    },
    {
      "anonymous": false,
      "inputs": [
        {
          "indexed": true,
          "internalType": "address",
          "name": "from",
          "type": "address"
        },
        {
          "indexed": true,
          "internalType": "address",
          "name": "to",
          "type": "address"
        },
        {
          "indexed": true,
          "internalType": "uint256",
          "name": "tokenId",
          "type": "uint256"
        }
      ],
      "name": "Transfer",
      "type": "event"
    },
    {
      "inputs": [
        {
          "internalType": "address",
          "name": "to",
          "type": "address"
        },
        {
          "internalType": "uint256",
          "name": "tokenId",
          "type": "uint256"
        }
      ],
      "name": "approve",
      "outputs": [],
      "stateMutability": "nonpayable",
      "type": "function"
    },
    {
      "inputs": [
        {
          "internalType": "address",
          "name": "owner",
          "type": "address"
        }
      ],
      "name": "balanceOf",
      "outputs": [
        {
          "internalType": "uint256",
          "name": "",
          "type": "uint256"
        }
      ],
      "stateMutability": "view",
      "type": "function"
    },
    {
      "inputs": [
        {
          "internalType": "uint256",
          "name": "tokenId",
          "type": "uint256"
        }
      ],
      "name": "getApproved",
      "outputs": [
        {
          "internalType": "address",
          "name": "",
          "type": "address"
        }
      ],
      "stateMutability": "view",
      "type": "function"
    },
    {
      "inputs": [],
      "name": "getCurrentSupply",
      "outputs": [
        {
          "internalType": "uint256",
          "name": "",
          "type": "uint256"
        }
      ],
      "stateMutability": "view",
      "type": "function"
    },
    {
      "inputs": [
        {
          "internalType": "address",
          "name": "owner",
          "type": "address"
        },
        {
          "internalType": "address",
          "name": "operator",
          "type": "address"
        }
      ],
      "name": "isApprovedForAll",
      "outputs": [
        {
          "internalType": "bool",
          "name": "",
          "type": "bool"
        }
      ],
      "stateMutability": "view",
      "type": "function"
    },
    {
      "inputs": [],
      "name": "makeAnEpicNFT",
      "outputs": [],
      "stateMutability": "nonpayable",
      "type": "function"
    },
    {
      "inputs": [],
      "name": "maxSupply",
      "outputs": [
        {
          "internalType": "uint256",
          "name": "",
          "type": "uint256"
        }
      ],
      "stateMutability": "view",
      "type": "function"
    },
    {
      "inputs": [],
      "name": "name",
      "outputs": [
        {
          "internalType": "string",
          "name": "",
          "type": "string"
        }
      ],
      "stateMutability": "view",
      "type": "function"
    },
    {
      "inputs": [
        {
          "internalType": "uint256",
          "name": "tokenId",
          "type": "uint256"
        }
      ],
      "name": "ownerOf",
      "outputs": [
        {
          "internalType": "address",
          "name": "",
          "type": "address"
        }
      ],
      "stateMutability": "view",
      "type": "function"
    },
    {
      "inputs": [
        {
          "internalType": "uint256",
          "name": "count",
          "type": "uint256"
        },
        {
          "internalType": "uint256",
          "name": "tokenId",
          "type": "uint256"
        }
      ],
      "name": "pickRandomWord",
      "outputs": [
        {
          "internalType": "string",
          "name": "",
          "type": "string"
        }
      ],
      "stateMutability": "view",
      "type": "function"
    },
    {
      "inputs": [
        {
          "internalType": "address",
          "name": "from",
          "type": "address"
        },
        {
          "internalType": "address",
          "name": "to",
          "type": "address"
        },
        {
          "internalType": "uint256",
          "name": "tokenId",
          "type": "uint256"
        }
      ],
      "name": "safeTransferFrom",
      "outputs": [],
      "stateMutability": "nonpayable",
      "type": "function"
    },
    {
      "inputs": [
        {
          "internalType": "address",
          "name": "from",
          "type": "address"
        },
        {
          "internalType": "address",
          "name": "to",
          "type": "address"
        },
        {
          "internalType": "uint256",
          "name": "tokenId",
          "type": "uint256"
        },
        {
          "internalType": "bytes",
          "name": "data",
          "type": "bytes"
        }
      ],
      "name": "safeTransferFrom",
      "outputs": [],
      "stateMutability": "nonpayable",
      "type": "function"
    },
    {
      "inputs": [
        {
          "internalType": "address",
          "name": "operator",
          "type": "address"
        },
        {
          "internalType": "bool",
          "name": "approved",
          "type": "bool"
        }
      ],
      "name": "setApprovalForAll",
      "outputs": [],
      "stateMutability": "nonpayable",
      "type": "function"
    },
    {
      "inputs": [
        {
          "internalType": "bytes4",
          "name": "interfaceId",
          "type": "bytes4"
        }
      ],
      "name": "supportsInterface",
      "outputs": [
        {
          "internalType": "bool",
          "name": "",
          "type": "bool"
        }
      ],
      "stateMutability": "view",
      "type": "function"
    },
    {
      "inputs": [],
      "name": "symbol",
      "outputs": [
        {
          "internalType": "string",
          "name": "",
          "type": "string"
        }
      ],
      "stateMutability": "view",
      "type": "function"
    },
    {
      "inputs": [
        {
          "internalType": "uint256",
          "name": "tokenId",
          "type": "uint256"
        }
      ],
      "name": "tokenURI",
      "outputs": [
        {
          "internalType": "string",
          "name": "",
          "type": "string"
        }
      ],
      "stateMutability": "view",
      "type": "function"
    },
    {
      "inputs": [
        {
          "internalType": "address",
          "name": "from",
          "type": "address"
        },
        {
          "internalType": "address",
          "name": "to",
          "type": "address"
        },
        {
          "internalType": "uint256",
          "name": "tokenId",
          "type": "uint256"
        }
      ],
      "name": "transferFrom",
      "outputs": [],
      "stateMutability": "nonpayable",
      "type": "function"
    }
  ],
  "bytecode": "0x608060405260405180610160016040528061012f815260200162004cc261012f9139600890816200003191906200100c565b50604051806101e001604052806040518060400160405280600781526020017f417765736f6d650000000000000000000000000000000000000000000000000081525081526020016040518060400160405280600981526020017f46616e746173746963000000000000000000000000000000000000000000000081525081526020016040518060400160405280600481526020017f57656c6c0000000000000000000000000000000000000000000000000000000081525081526020016040518060400160405280600481526020017f506f6f720000000000000000000000000000000000000000000000000000000081525081526020016040518060400160405280600881526020017f5465727269626c6500000000000000000000000000000000000000000000000081525081526020016040518060400160405280600581526020017f4372617a7900000000000000000000000000000000000000000000000000000081525081526020016040518060400160405280600581526020017f46756e6b7900000000000000000000000000000000000000000000000000000081525081526020016040518060400160405280600681526020017f53706f6f6b79000000000000000000000000000000000000000000000000000081525081526020016040518060400160405280600581526020017f526f636b7900000000000000000000000000000000000000000000000000000081525081526020016040518060400160405280600481526020017f57696c640000000000000000000000000000000000000000000000000000000081525081526020016040518060400160405280600481526020017f426f6f6d0000000000000000000000000000000000000000000000000000000081525081526020016040518060400160405280600781526020017f52756e6e696e670000000000000000000000000000000000000000000000000081525081526020016040518060400160405280600a81526020017f54657272696679696e670000000000000000000000000000000000000000000081525081526020016040518060400160405280600781526020017f462a636b696e670000000000000000000000000000000000000000000000000081525081526020016040518060400160405280600681526020017f436f64696e670000000000000000000000000000000000000000000000000000815250815250600990600f620003c392919062000ca5565b50604051806101e001604052806040518060400160405280600781526020017f43757063616b650000000000000000000000000000000000000000000000000081525081526020016040518060400160405280600581526020017f50697a7a6100000000000000000000000000000000000000000000000000000081525081526020016040518060400160405280600981526020017f4d696c6b7368616b65000000000000000000000000000000000000000000000081525081526020016040518060400160405280600581526020017f437572727900000000000000000000000000000000000000000000000000000081525081526020016040518060400160405280600781526020017f436869636b656e0000000000000000000000000000000000000000000000000081525081526020016040518060400160405280600881526020017f53616e647769636800000000000000000000000000000000000000000000000081525081526020016040518060400160405280600581526020017f53616c616400000000000000000000000000000000000000000000000000000081525081526020016040518060400160405280600381526020017f4f696c000000000000000000000000000000000000000000000000000000000081525081526020016040518060400160405280600381526020017f536f79000000000000000000000000000000000000000000000000000000000081525081526020016040518060400160405280600581526020017f47616c696300000000000000000000000000000000000000000000000000000081525081526020016040518060400160405280600381526020017f4f7269000000000000000000000000000000000000000000000000000000000081525081526020016040518060400160405280600681526020017f4f72616e6765000000000000000000000000000000000000000000000000000081525081526020016040518060400160405280600681526020017f526164697368000000000000000000000000000000000000000000000000000081525081526020016040518060400160405280600781526020017f50616e63616b650000000000000000000000000000000000000000000000000081525081526020016040518060400160405280600681526020017f436f666665650000000000000000000000000000000000000000000000000000815250815250600a90600f6200075592919062000ca5565b50604051806101e001604052806040518060400160405280600681526020017f4e617275746f000000000000000000000000000000000000000000000000000081525081526020016040518060400160405280600681526020017f536173756b65000000000000000000000000000000000000000000000000000081525081526020016040518060400160405280600681526020017f53616b757261000000000000000000000000000000000000000000000000000081525081526020016040518060400160405280600481526020017f476f6b750000000000000000000000000000000000000000000000000000000081525081526020016040518060400160405280600581526020017f476172726100000000000000000000000000000000000000000000000000000081525081526020016040518060400160405280600681526020017f4d696e61746f000000000000000000000000000000000000000000000000000081525081526020016040518060400160405280600881526020017f53616e746f73686900000000000000000000000000000000000000000000000081525081526020016040518060400160405280600781526020017f4b616b617368690000000000000000000000000000000000000000000000000081525081526020016040518060400160405280600681526020017f497461636869000000000000000000000000000000000000000000000000000081525081526020016040518060400160405280600681526020017f4d6164617261000000000000000000000000000000000000000000000000000081525081526020016040518060400160405280600481526020017f4d696e610000000000000000000000000000000000000000000000000000000081525081526020016040518060400160405280600681526020017f4b756c616d61000000000000000000000000000000000000000000000000000081525081526020016040518060400160405280600681526020017f5a696c617961000000000000000000000000000000000000000000000000000081525081526020016040518060400160405280600481526020017f4d7579610000000000000000000000000000000000000000000000000000000081525081526020016040518060400160405280600481526020017f4c69736100000000000000000000000000000000000000000000000000000000815250815250600b90600f62000ae792919062000ca5565b5034801562000af557600080fd5b506040518060400160405280600981526020017f5371756172654e465400000000000000000000000000000000000000000000008152506040518060400160405280600681526020017f5351554152450000000000000000000000000000000000000000000000000000815250816000908162000b7391906200100c565b50806001908162000b8591906200100c565b50505062000bd36040518060400160405280601881526020017f54686973206973206d79204e465420636f6e747261637421000000000000000081525062000bd960201b620010b51760201c565b620011a6565b62000c798160405160240162000bf0919062001182565b6040516020818303038152906040527f41304fac000000000000000000000000000000000000000000000000000000007bffffffffffffffffffffffffffffffffffffffffffffffffffffffff19166020820180517bffffffffffffffffffffffffffffffffffffffffffffffffffffffff838183161783525050505062000c7c60201b60201c565b50565b60008151905060006a636f6e736f6c652e6c6f679050602083016000808483855afa5050505050565b82805482825590600052602060002090810192821562000cf2579160200282015b8281111562000cf157825182908162000ce091906200100c565b509160200191906001019062000cc6565b5b50905062000d01919062000d05565b5090565b5b8082111562000d29576000818162000d1f919062000d2d565b5060010162000d06565b5090565b50805462000d3b9062000dfb565b6000825580601f1062000d4f575062000d70565b601f01602090049060005260206000209081019062000d6f919062000d73565b5b50565b5b8082111562000d8e57600081600090555060010162000d74565b5090565b600081519050919050565b7f4e487b7100000000000000000000000000000000000000000000000000000000600052604160045260246000fd5b7f4e487b7100000000000000000000000000000000000000000000000000000000600052602260045260246000fd5b6000600282049050600182168062000e1457607f821691505b60208210810362000e2a5762000e2962000dcc565b5b50919050565b60008190508160005260206000209050919050565b60006020601f8301049050919050565b600082821b905092915050565b60006008830262000e947fffffffffffffffffffffffffffffffffffffffffffffffffffffffffffffffff8262000e55565b62000ea0868362000e55565b95508019841693508086168417925050509392505050565b6000819050919050565b6000819050919050565b600062000eed62000ee762000ee18462000eb8565b62000ec2565b62000eb8565b9050919050565b6000819050919050565b62000f098362000ecc565b62000f2162000f188262000ef4565b84845462000e62565b825550505050565b600090565b62000f3862000f29565b62000f4581848462000efe565b505050565b5b8181101562000f6d5762000f6160008262000f2e565b60018101905062000f4b565b5050565b601f82111562000fbc5762000f868162000e30565b62000f918462000e45565b8101602085101562000fa1578190505b62000fb962000fb08562000e45565b83018262000f4a565b50505b505050565b600082821c905092915050565b600062000fe16000198460080262000fc1565b1980831691505092915050565b600062000ffc838362000fce565b9150826002028217905092915050565b620010178262000d92565b67ffffffffffffffff81111562001033576200103262000d9d565b5b6200103f825462000dfb565b6200104c82828562000f71565b600060209050601f8311600181146200108457600084156200106f578287015190505b6200107b858262000fee565b865550620010eb565b601f198416620010948662000e30565b60005b82811015620010be5784890151825560018201915060208501945060208101905062001097565b86831015620010de5784890151620010da601f89168262000fce565b8355505b6001600288020188555050505b505050505050565b600082825260208201905092915050565b60005b838110156200112457808201518184015260208101905062001107565b60008484015250505050565b6000601f19601f8301169050919050565b60006200114e8262000d92565b6200115a8185620010f3565b93506200116c81856020860162001104565b620011778162001130565b840191505092915050565b600060208201905081810360008301526200119e818462001141565b905092915050565b613b0c80620011b66000396000f3fe608060405234801561001057600080fd5b506004361061010b5760003560e01c806370a08231116100a2578063b88d4fde11610071578063b88d4fde146102ca578063c87b56dd146102e6578063d5abeb0114610316578063de9d132f14610334578063e985e9c51461033e5761010b565b806370a082311461023057806395d89b4114610260578063a22cb4651461027e578063a75b34d51461029a5761010b565b806323b872dd116100de57806323b872dd146101aa57806342842e0e146101c65780634f3e1efc146101e25780636352211e146102005761010b565b806301ffc9a71461011057806306fdde0314610140578063081812fc1461015e578063095ea7b31461018e575b600080fd5b61012a60048036038101906101259190612433565b61036e565b604051610137919061247b565b60405180910390f35b610148610450565b6040516101559190612526565b60405180910390f35b6101786004803603810190610173919061257e565b6104e2565b60405161018591906125ec565b60405180910390f35b6101a860048036038101906101a39190612633565b610528565b005b6101c460048036038101906101bf9190612673565b61063f565b005b6101e060048036038101906101db9190612673565b61069f565b005b6101ea6106bf565b6040516101f791906126d5565b60405180910390f35b61021a6004803603810190610215919061257e565b6106d0565b60405161022791906125ec565b60405180910390f35b61024a600480360381019061024591906126f0565b610756565b60405161025791906126d5565b60405180910390f35b61026861080d565b6040516102759190612526565b60405180910390f35b61029860048036038101906102939190612749565b61089f565b005b6102b460048036038101906102af9190612789565b6108b5565b6040516102c19190612526565b60405180910390f35b6102e460048036038101906102df91906128fe565b610bd4565b005b61030060048036038101906102fb919061257e565b610c36565b60405161030d9190612526565b60405180910390f35b61031e610d48565b60405161032b91906126d5565b60405180910390f35b61033c610d4d565b005b61035860048036038101906103539190612981565b611021565b604051610365919061247b565b60405180910390f35b60007f80ac58cd000000000000000000000000000000000000000000000000000000007bffffffffffffffffffffffffffffffffffffffffffffffffffffffff1916827bffffffffffffffffffffffffffffffffffffffffffffffffffffffff1916148061043957507f5b5e139f000000000000000000000000000000000000000000000000000000007bffffffffffffffffffffffffffffffffffffffffffffffffffffffff1916827bffffffffffffffffffffffffffffffffffffffffffffffffffffffff1916145b8061044957506104488261114e565b5b9050919050565b60606000805461045f906129f0565b80601f016020809104026020016040519081016040528092919081815260200182805461048b906129f0565b80156104d85780601f106104ad576101008083540402835291602001916104d8565b820191906000526020600020905b8154815290600101906020018083116104bb57829003601f168201915b5050505050905090565b60006104ed826111b8565b6004600083815260200190815260200160002060009054906101000a900473ffffffffffffffffffffffffffffffffffffffff169050919050565b6000610533826106d0565b90508073ffffffffffffffffffffffffffffffffffffffff168373ffffffffffffffffffffffffffffffffffffffff16036105a3576040517f08c379a000000000000000000000000000000000000000000000000000000000815260040161059a90612a93565b60405180910390fd5b8073ffffffffffffffffffffffffffffffffffffffff166105c2611203565b73ffffffffffffffffffffffffffffffffffffffff1614806105f157506105f0816105eb611203565b611021565b5b610630576040517f08c379a000000000000000000000000000000000000000000000000000000000815260040161062790612b25565b60405180910390fd5b61063a838361120b565b505050565b61065061064a611203565b826112c4565b61068f576040517f08c379a000000000000000000000000000000000000000000000000000000000815260040161068690612bb7565b60405180910390fd5b61069a838383611359565b505050565b6106ba83838360405180602001604052806000815250610bd4565b505050565b60006106cb6007611652565b905090565b6000806106dc83611660565b9050600073ffffffffffffffffffffffffffffffffffffffff168173ffffffffffffffffffffffffffffffffffffffff160361074d576040517f08c379a000000000000000000000000000000000000000000000000000000000815260040161074490612c23565b60405180910390fd5b80915050919050565b60008073ffffffffffffffffffffffffffffffffffffffff168273ffffffffffffffffffffffffffffffffffffffff16036107c6576040517f08c379a00000000000000000000000000000000000000000000000000000000081526004016107bd90612cb5565b60405180910390fd5b600360008373ffffffffffffffffffffffffffffffffffffffff1673ffffffffffffffffffffffffffffffffffffffff168152602001908152602001600020549050919050565b60606001805461081c906129f0565b80601f0160208091040260200160405190810160405280929190818152602001828054610848906129f0565b80156108955780601f1061086a57610100808354040283529160200191610895565b820191906000526020600020905b81548152906001019060200180831161087857829003601f168201915b5050505050905090565b6108b16108aa611203565b838361169d565b5050565b60608060006003856108c79190612d04565b9050600081036109aa576009805480602002602001604051908101604052809291908181526020016000905b8282101561099f578382906000526020600020018054610912906129f0565b80601f016020809104026020016040519081016040528092919081815260200182805461093e906129f0565b801561098b5780601f106109605761010080835404028352916020019161098b565b820191906000526020600020905b81548152906001019060200180831161096e57829003601f168201915b5050505050815260200190600101906108f3565b505050509150610b61565b60018103610a8b57600a805480602002602001604051908101604052809291908181526020016000905b82821015610a805783829060005260206000200180546109f3906129f0565b80601f0160208091040260200160405190810160405280929190818152602001828054610a1f906129f0565b8015610a6c5780601f10610a4157610100808354040283529160200191610a6c565b820191906000526020600020905b815481529060010190602001808311610a4f57829003601f168201915b5050505050815260200190600101906109d4565b505050509150610b60565b600b805480602002602001604051908101604052809291908181526020016000905b82821015610b59578382906000526020600020018054610acc906129f0565b80601f0160208091040260200160405190810160405280929190818152602001828054610af8906129f0565b8015610b455780601f10610b1a57610100808354040283529160200191610b45565b820191906000526020600020905b815481529060010190602001808311610b2857829003601f168201915b505050505081526020019060010190610aad565b5050505091505b5b6000610b9d610b6f83611809565b610b7887611809565b604051602001610b89929190612d71565b6040516020818303038152906040526118d7565b9050825181610bac9190612d04565b9050828181518110610bc157610bc0612d95565b5b6020026020010151935050505092915050565b610be5610bdf611203565b836112c4565b610c24576040517f08c379a0000000000000000000000000000000000000000000000000000000008152600401610c1b90612bb7565b60405180910390fd5b610c308484848461190a565b50505050565b6060610c41826111b8565b6000600660008481526020019081526020016000208054610c61906129f0565b80601f0160208091040260200160405190810160405280929190818152602001828054610c8d906129f0565b8015610cda5780601f10610caf57610100808354040283529160200191610cda565b820191906000526020600020905b815481529060010190602001808311610cbd57829003601f168201915b505050505090506000610ceb611966565b90506000815103610d00578192505050610d43565b600082511115610d35578082604051602001610d1d929190612d71565b60405160208183030381529060405292505050610d43565b610d3e8461197d565b925050505b919050565b603281565b6000610d596007611652565b905060328110610d9e576040517f08c379a0000000000000000000000000000000000000000000000000000000008152600401610d9590612e10565b60405180910390fd5b6000610dab6000836108b5565b90506000610dba6001846108b5565b90506000610dc96002856108b5565b90506000838383604051602001610de293929190612e30565b60405160208183030381529060405290506000600882604051602001610e09929190612f45565b6040516020818303038152906040529050610e586040518060400160405280601581526020017f0a2d2d2d2d2d2d2d2d2d2d2d2d2d2d2d2d2d2d2d2d00000000000000000000008152506110b5565b610e61816110b5565b610e9f6040518060400160405280601581526020017f2d2d2d2d2d2d2d2d2d2d2d2d2d2d2d2d2d2d2d2d0a00000000000000000000008152506110b5565b6000610ed383610eae846119e5565b604051602001610ebf9291906130ca565b6040516020818303038152906040526119e5565b9050600081604051602001610ee8919061315b565b6040516020818303038152906040529050610f376040518060400160405280601581526020017f0a2d2d2d2d2d2d2d2d2d2d2d2d2d2d2d2d2d2d2d2d00000000000000000000008152506110b5565b610f5f81604051602001610f4b91906131ef565b6040516020818303038152906040526110b5565b610f9d6040518060400160405280601581526020017f2d2d2d2d2d2d2d2d2d2d2d2d2d2d2d2d2d2d2d2d0a00000000000000000000008152506110b5565b610fa73389611b7c565b610fb18882611b9a565b610fbb6007611c07565b610fde604051806060016040528060258152602001613ab2602591398933611c1d565b7febb98688741ffa4c7589bf325de30cf7becb63de567842e1ccdb6cb949fdc82c338960405161100f929190613211565b60405180910390a15050505050505050565b6000600560008473ffffffffffffffffffffffffffffffffffffffff1673ffffffffffffffffffffffffffffffffffffffff16815260200190815260200160002060008373ffffffffffffffffffffffffffffffffffffffff1673ffffffffffffffffffffffffffffffffffffffff16815260200190815260200160002060009054906101000a900460ff16905092915050565b61114b816040516024016110c99190612526565b6040516020818303038152906040527f41304fac000000000000000000000000000000000000000000000000000000007bffffffffffffffffffffffffffffffffffffffffffffffffffffffff19166020820180517bffffffffffffffffffffffffffffffffffffffffffffffffffffffff8381831617835250505050611cbc565b50565b60007f01ffc9a7000000000000000000000000000000000000000000000000000000007bffffffffffffffffffffffffffffffffffffffffffffffffffffffff1916827bffffffffffffffffffffffffffffffffffffffffffffffffffffffff1916149050919050565b6111c181611ce5565b611200576040517f08c379a00000000000000000000000000000000000000000000000000000000081526004016111f790612c23565b60405180910390fd5b50565b600033905090565b816004600083815260200190815260200160002060006101000a81548173ffffffffffffffffffffffffffffffffffffffff021916908373ffffffffffffffffffffffffffffffffffffffff160217905550808273ffffffffffffffffffffffffffffffffffffffff1661127e836106d0565b73ffffffffffffffffffffffffffffffffffffffff167f8c5be1e5ebec7d5bd14f71427d1e84f3dd0314c0f7b2291e5b200ac8c7c3b92560405160405180910390a45050565b6000806112d0836106d0565b90508073ffffffffffffffffffffffffffffffffffffffff168473ffffffffffffffffffffffffffffffffffffffff16148061131257506113118185611021565b5b8061135057508373ffffffffffffffffffffffffffffffffffffffff16611338846104e2565b73ffffffffffffffffffffffffffffffffffffffff16145b91505092915050565b8273ffffffffffffffffffffffffffffffffffffffff16611379826106d0565b73ffffffffffffffffffffffffffffffffffffffff16146113cf576040517f08c379a00000000000000000000000000000000000000000000000000000000081526004016113c6906132ac565b60405180910390fd5b600073ffffffffffffffffffffffffffffffffffffffff168273ffffffffffffffffffffffffffffffffffffffff160361143e576040517f08c379a00000000000000000000000000000000000000000000000000000000081526004016114359061333e565b60405180910390fd5b61144b8383836001611d26565b8273ffffffffffffffffffffffffffffffffffffffff1661146b826106d0565b73ffffffffffffffffffffffffffffffffffffffff16146114c1576040517f08c379a00000000000000000000000000000000000000000000000000000000081526004016114b8906132ac565b60405180910390fd5b6004600082815260200190815260200160002060006101000a81549073ffffffffffffffffffffffffffffffffffffffff02191690556001600360008573ffffffffffffffffffffffffffffffffffffffff1673ffffffffffffffffffffffffffffffffffffffff168152602001908152602001600020600082825403925050819055506001600360008473ffffffffffffffffffffffffffffffffffffffff1673ffffffffffffffffffffffffffffffffffffffff16815260200190815260200160002060008282540192505081905550816002600083815260200190815260200160002060006101000a81548173ffffffffffffffffffffffffffffffffffffffff021916908373ffffffffffffffffffffffffffffffffffffffff160217905550808273ffffffffffffffffffffffffffffffffffffffff168473ffffffffffffffffffffffffffffffffffffffff167fddf252ad1be2c89b69c2b068fc378daa952ba7f163c4a11628f55a4df523b3ef60405160405180910390a461164d8383836001611e4c565b505050565b600081600001549050919050565b60006002600083815260200190815260200160002060009054906101000a900473ffffffffffffffffffffffffffffffffffffffff169050919050565b8173ffffffffffffffffffffffffffffffffffffffff168373ffffffffffffffffffffffffffffffffffffffff160361170b576040517f08c379a0000000000000000000000000000000000000000000000000000000008152600401611702906133aa565b60405180910390fd5b80600560008573ffffffffffffffffffffffffffffffffffffffff1673ffffffffffffffffffffffffffffffffffffffff16815260200190815260200160002060008473ffffffffffffffffffffffffffffffffffffffff1673ffffffffffffffffffffffffffffffffffffffff16815260200190815260200160002060006101000a81548160ff0219169083151502179055508173ffffffffffffffffffffffffffffffffffffffff168373ffffffffffffffffffffffffffffffffffffffff167f17307eab39ab6107e8899845ad3d59bd9653f200f220920489ca2b5937696c31836040516117fc919061247b565b60405180910390a3505050565b60606000600161181884611e52565b01905060008167ffffffffffffffff811115611837576118366127d3565b5b6040519080825280601f01601f1916602001820160405280156118695781602001600182028036833780820191505090505b509050600082602001820190505b6001156118cc578080600190039150507f3031323334353637383961626364656600000000000000000000000000000000600a86061a8153600a85816118c0576118bf612cd5565b5b04945060008503611877575b819350505050919050565b6000816040516020016118ea91906133ca565b6040516020818303038152906040528051906020012060001c9050919050565b611915848484611359565b61192184848484611fa5565b611960576040517f08c379a000000000000000000000000000000000000000000000000000000000815260040161195790613453565b60405180910390fd5b50505050565b606060405180602001604052806000815250905090565b6060611988826111b8565b6000611992611966565b905060008151116119b257604051806020016040528060008152506119dd565b806119bc84611809565b6040516020016119cd929190612d71565b6040516020818303038152906040525b915050919050565b606060008251905060008103611a0d5760405180602001604052806000815250915050611b77565b60006003600283611a1e91906134a2565b611a2891906134d6565b6004611a349190613507565b90506000602082611a4591906134a2565b67ffffffffffffffff811115611a5e57611a5d6127d3565b5b6040519080825280601f01601f191660200182016040528015611a905781602001600182028036833780820191505090505b5090506000604051806060016040528060408152602001613a72604091399050600181016020830160005b86811015611b345760038101905062ffffff818a015116603f8160121c168401518060081b905060ff603f83600c1c1686015116810190508060081b905060ff603f8360061c1686015116810190508060081b905060ff603f831686015116810190508060e01b90508084526004840193505050611abb565b506003860660018114611b4e5760028114611b5e57611b69565b613d3d60f01b6002830352611b69565b603d60f81b60018303525b508484525050819450505050505b919050565b611b9682826040518060200160405280600081525061212c565b5050565b611ba382611ce5565b611be2576040517f08c379a0000000000000000000000000000000000000000000000000000000008152600401611bd9906135bb565b60405180910390fd5b80600660008481526020019081526020016000209081611c029190613772565b505050565b6001816000016000828254019250508190555050565b611cb7838383604051602401611c3593929190613844565b6040516020818303038152906040527f1c7ec448000000000000000000000000000000000000000000000000000000007bffffffffffffffffffffffffffffffffffffffffffffffffffffffff19166020820180517bffffffffffffffffffffffffffffffffffffffffffffffffffffffff8381831617835250505050611cbc565b505050565b60008151905060006a636f6e736f6c652e6c6f679050602083016000808483855afa5050505050565b60008073ffffffffffffffffffffffffffffffffffffffff16611d0783611660565b73ffffffffffffffffffffffffffffffffffffffff1614159050919050565b6001811115611e4657600073ffffffffffffffffffffffffffffffffffffffff168473ffffffffffffffffffffffffffffffffffffffff1614611dba5780600360008673ffffffffffffffffffffffffffffffffffffffff1673ffffffffffffffffffffffffffffffffffffffff1681526020019081526020016000206000828254611db29190613882565b925050819055505b600073ffffffffffffffffffffffffffffffffffffffff168373ffffffffffffffffffffffffffffffffffffffff1614611e455780600360008573ffffffffffffffffffffffffffffffffffffffff1673ffffffffffffffffffffffffffffffffffffffff1681526020019081526020016000206000828254611e3d91906134a2565b925050819055505b5b50505050565b50505050565b600080600090507a184f03e93ff9f4daa797ed6e38ed64bf6a1f0100000000000000008310611eb0577a184f03e93ff9f4daa797ed6e38ed64bf6a1f0100000000000000008381611ea657611ea5612cd5565b5b0492506040810190505b6d04ee2d6d415b85acef81000000008310611eed576d04ee2d6d415b85acef81000000008381611ee357611ee2612cd5565b5b0492506020810190505b662386f26fc100008310611f1c57662386f26fc100008381611f1257611f11612cd5565b5b0492506010810190505b6305f5e1008310611f45576305f5e1008381611f3b57611f3a612cd5565b5b0492506008810190505b6127108310611f6a576127108381611f6057611f5f612cd5565b5b0492506004810190505b60648310611f8d5760648381611f8357611f82612cd5565b5b0492506002810190505b600a8310611f9c576001810190505b80915050919050565b6000611fc68473ffffffffffffffffffffffffffffffffffffffff16612187565b1561211f578373ffffffffffffffffffffffffffffffffffffffff1663150b7a02611fef611203565b8786866040518563ffffffff1660e01b8152600401612011949392919061390b565b6020604051808303816000875af192505050801561204d57506040513d601f19601f8201168201806040525081019061204a919061396c565b60015b6120cf573d806000811461207d576040519150601f19603f3d011682016040523d82523d6000602084013e612082565b606091505b5060008151036120c7576040517f08c379a00000000000000000000000000000000000000000000000000000000081526004016120be90613453565b60405180910390fd5b805181602001fd5b63150b7a0260e01b7bffffffffffffffffffffffffffffffffffffffffffffffffffffffff1916817bffffffffffffffffffffffffffffffffffffffffffffffffffffffff191614915050612124565b600190505b949350505050565b61213683836121aa565b6121436000848484611fa5565b612182576040517f08c379a000000000000000000000000000000000000000000000000000000000815260040161217990613453565b60405180910390fd5b505050565b6000808273ffffffffffffffffffffffffffffffffffffffff163b119050919050565b600073ffffffffffffffffffffffffffffffffffffffff168273ffffffffffffffffffffffffffffffffffffffff1603612219576040517f08c379a0000000000000000000000000000000000000000000000000000000008152600401612210906139e5565b60405180910390fd5b61222281611ce5565b15612262576040517f08c379a000000000000000000000000000000000000000000000000000000000815260040161225990613a51565b60405180910390fd5b612270600083836001611d26565b61227981611ce5565b156122b9576040517f08c379a00000000000000000000000000000000000000000000000000000000081526004016122b090613a51565b60405180910390fd5b6001600360008473ffffffffffffffffffffffffffffffffffffffff1673ffffffffffffffffffffffffffffffffffffffff16815260200190815260200160002060008282540192505081905550816002600083815260200190815260200160002060006101000a81548173ffffffffffffffffffffffffffffffffffffffff021916908373ffffffffffffffffffffffffffffffffffffffff160217905550808273ffffffffffffffffffffffffffffffffffffffff16600073ffffffffffffffffffffffffffffffffffffffff167fddf252ad1be2c89b69c2b068fc378daa952ba7f163c4a11628f55a4df523b3ef60405160405180910390a46123c3600083836001611e4c565b5050565b6000604051905090565b600080fd5b600080fd5b60007fffffffff0000000000000000000000000000000000000000000000000000000082169050919050565b612410816123db565b811461241b57600080fd5b50565b60008135905061242d81612407565b92915050565b600060208284031215612449576124486123d1565b5b60006124578482850161241e565b91505092915050565b60008115159050919050565b61247581612460565b82525050565b6000602082019050612490600083018461246c565b92915050565b600081519050919050565b600082825260208201905092915050565b60005b838110156124d05780820151818401526020810190506124b5565b60008484015250505050565b6000601f19601f8301169050919050565b60006124f882612496565b61250281856124a1565b93506125128185602086016124b2565b61251b816124dc565b840191505092915050565b6000602082019050818103600083015261254081846124ed565b905092915050565b6000819050919050565b61255b81612548565b811461256657600080fd5b50565b60008135905061257881612552565b92915050565b600060208284031215612594576125936123d1565b5b60006125a284828501612569565b91505092915050565b600073ffffffffffffffffffffffffffffffffffffffff82169050919050565b60006125d6826125ab565b9050919050565b6125e6816125cb565b82525050565b600060208201905061260160008301846125dd565b92915050565b612610816125cb565b811461261b57600080fd5b50565b60008135905061262d81612607565b92915050565b6000806040838503121561264a576126496123d1565b5b60006126588582860161261e565b925050602061266985828601612569565b9150509250929050565b60008060006060848603121561268c5761268b6123d1565b5b600061269a8682870161261e565b93505060206126ab8682870161261e565b92505060406126bc86828701612569565b9150509250925092565b6126cf81612548565b82525050565b60006020820190506126ea60008301846126c6565b92915050565b600060208284031215612706576127056123d1565b5b60006127148482850161261e565b91505092915050565b61272681612460565b811461273157600080fd5b50565b6000813590506127438161271d565b92915050565b600080604083850312156127605761275f6123d1565b5b600061276e8582860161261e565b925050602061277f85828601612734565b9150509250929050565b600080604083850312156127a05761279f6123d1565b5b60006127ae85828601612569565b92505060206127bf85828601612569565b9150509250929050565b600080fd5b600080fd5b7f4e487b7100000000000000000000000000000000000000000000000000000000600052604160045260246000fd5b61280b826124dc565b810181811067ffffffffffffffff8211171561282a576128296127d3565b5b80604052505050565b600061283d6123c7565b90506128498282612802565b919050565b600067ffffffffffffffff821115612869576128686127d3565b5b612872826124dc565b9050602081019050919050565b82818337600083830152505050565b60006128a161289c8461284e565b612833565b9050828152602081018484840111156128bd576128bc6127ce565b5b6128c884828561287f565b509392505050565b600082601f8301126128e5576128e46127c9565b5b81356128f584826020860161288e565b91505092915050565b60008060008060808587031215612918576129176123d1565b5b60006129268782880161261e565b94505060206129378782880161261e565b935050604061294887828801612569565b925050606085013567ffffffffffffffff811115612969576129686123d6565b5b612975878288016128d0565b91505092959194509250565b60008060408385031215612998576129976123d1565b5b60006129a68582860161261e565b92505060206129b78582860161261e565b9150509250929050565b7f4e487b7100000000000000000000000000000000000000000000000000000000600052602260045260246000fd5b60006002820490506001821680612a0857607f821691505b602082108103612a1b57612a1a6129c1565b5b50919050565b7f4552433732313a20617070726f76616c20746f2063757272656e74206f776e6560008201527f7200000000000000000000000000000000000000000000000000000000000000602082015250565b6000612a7d6021836124a1565b9150612a8882612a21565b604082019050919050565b60006020820190508181036000830152612aac81612a70565b9050919050565b7f4552433732313a20617070726f76652063616c6c6572206973206e6f7420746f60008201527f6b656e206f776e6572206f7220617070726f76656420666f7220616c6c000000602082015250565b6000612b0f603d836124a1565b9150612b1a82612ab3565b604082019050919050565b60006020820190508181036000830152612b3e81612b02565b9050919050565b7f4552433732313a2063616c6c6572206973206e6f7420746f6b656e206f776e6560008201527f72206f7220617070726f76656400000000000000000000000000000000000000602082015250565b6000612ba1602d836124a1565b9150612bac82612b45565b604082019050919050565b60006020820190508181036000830152612bd081612b94565b9050919050565b7f4552433732313a20696e76616c696420746f6b656e2049440000000000000000600082015250565b6000612c0d6018836124a1565b9150612c1882612bd7565b602082019050919050565b60006020820190508181036000830152612c3c81612c00565b9050919050565b7f4552433732313a2061646472657373207a65726f206973206e6f74206120766160008201527f6c6964206f776e65720000000000000000000000000000000000000000000000602082015250565b6000612c9f6029836124a1565b9150612caa82612c43565b604082019050919050565b60006020820190508181036000830152612cce81612c92565b9050919050565b7f4e487b7100000000000000000000000000000000000000000000000000000000600052601260045260246000fd5b6000612d0f82612548565b9150612d1a83612548565b925082612d2a57612d29612cd5565b5b828206905092915050565b600081905092915050565b6000612d4b82612496565b612d558185612d35565b9350612d658185602086016124b2565b80840191505092915050565b6000612d7d8285612d40565b9150612d898284612d40565b91508190509392505050565b7f4e487b7100000000000000000000000000000000000000000000000000000000600052603260045260246000fd5b7f4d617820737570706c7920726561636865642100000000000000000000000000600082015250565b6000612dfa6013836124a1565b9150612e0582612dc4565b602082019050919050565b60006020820190508181036000830152612e2981612ded565b9050919050565b6000612e3c8286612d40565b9150612e488285612d40565b9150612e548284612d40565b9150819050949350505050565b60008190508160005260206000209050919050565b60008154612e83816129f0565b612e8d8186612d35565b94506001821660008114612ea85760018114612ebd57612ef0565b60ff1983168652811515820286019350612ef0565b612ec685612e61565b60005b83811015612ee857815481890152600182019150602081019050612ec9565b838801955050505b50505092915050565b7f3c2f746578743e3c2f7376673e00000000000000000000000000000000000000600082015250565b6000612f2f600d83612d35565b9150612f3a82612ef9565b600d82019050919050565b6000612f518285612e76565b9150612f5d8284612d40565b9150612f6882612f22565b91508190509392505050565b7f7b226e616d65223a202200000000000000000000000000000000000000000000600082015250565b6000612faa600a83612d35565b9150612fb582612f74565b600a82019050919050565b7f222c20226465736372697074696f6e223a20224120686967686c79206163636c60008201527f61696d656420636f6c6c656374696f6e206f6620737175617265732e222c202260208201527f696d616765223a2022646174613a696d6167652f7376672b786d6c3b6261736560408201527f36342c0000000000000000000000000000000000000000000000000000000000606082015250565b6000613068606383612d35565b915061307382612fc0565b606382019050919050565b7f227d000000000000000000000000000000000000000000000000000000000000600082015250565b60006130b4600283612d35565b91506130bf8261307e565b600282019050919050565b60006130d582612f9d565b91506130e18285612d40565b91506130ec8261305b565b91506130f88284612d40565b9150613103826130a7565b91508190509392505050565b7f646174613a6170706c69636174696f6e2f6a736f6e3b6261736536342c000000600082015250565b6000613145601d83612d35565b91506131508261310f565b601d82019050919050565b600061316682613138565b91506131728284612d40565b915081905092915050565b7f68747470733a2f2f6e6674707265766965772e30786465762e636f6465732f3f60008201527f636f64653d000000000000000000000000000000000000000000000000000000602082015250565b60006131d9602583612d35565b91506131e48261317d565b602582019050919050565b60006131fa826131cc565b91506132068284612d40565b915081905092915050565b600060408201905061322660008301856125dd565b61323360208301846126c6565b9392505050565b7f4552433732313a207472616e736665722066726f6d20696e636f72726563742060008201527f6f776e6572000000000000000000000000000000000000000000000000000000602082015250565b60006132966025836124a1565b91506132a18261323a565b604082019050919050565b600060208201905081810360008301526132c581613289565b9050919050565b7f4552433732313a207472616e7366657220746f20746865207a65726f2061646460008201527f7265737300000000000000000000000000000000000000000000000000000000602082015250565b60006133286024836124a1565b9150613333826132cc565b604082019050919050565b600060208201905081810360008301526133578161331b565b9050919050565b7f4552433732313a20617070726f766520746f2063616c6c657200000000000000600082015250565b60006133946019836124a1565b915061339f8261335e565b602082019050919050565b600060208201905081810360008301526133c381613387565b9050919050565b60006133d68284612d40565b915081905092915050565b7f4552433732313a207472616e7366657220746f206e6f6e20455243373231526560008201527f63656976657220696d706c656d656e7465720000000000000000000000000000602082015250565b600061343d6032836124a1565b9150613448826133e1565b604082019050919050565b6000602082019050818103600083015261346c81613430565b9050919050565b7f4e487b7100000000000000000000000000000000000000000000000000000000600052601160045260246000fd5b60006134ad82612548565b91506134b883612548565b92508282019050808211156134d0576134cf613473565b5b92915050565b60006134e182612548565b91506134ec83612548565b9250826134fc576134fb612cd5565b5b828204905092915050565b600061351282612548565b915061351d83612548565b925082820261352b81612548565b9150828204841483151761354257613541613473565b5b5092915050565b7f45524337323155524953746f726167653a2055524920736574206f66206e6f6e60008201527f6578697374656e7420746f6b656e000000000000000000000000000000000000602082015250565b60006135a5602e836124a1565b91506135b082613549565b604082019050919050565b600060208201905081810360008301526135d481613598565b9050919050565b60006020601f8301049050919050565b600082821b905092915050565b6000600883026136287fffffffffffffffffffffffffffffffffffffffffffffffffffffffffffffffff826135eb565b61363286836135eb565b95508019841693508086168417925050509392505050565b6000819050919050565b600061366f61366a61366584612548565b61364a565b612548565b9050919050565b6000819050919050565b61368983613654565b61369d61369582613676565b8484546135f8565b825550505050565b600090565b6136b26136a5565b6136bd818484613680565b505050565b5b818110156136e1576136d66000826136aa565b6001810190506136c3565b5050565b601f821115613726576136f781612e61565b613700846135db565b8101602085101561370f578190505b61372361371b856135db565b8301826136c2565b50505b505050565b600082821c905092915050565b60006137496000198460080261372b565b1980831691505092915050565b60006137628383613738565b9150826002028217905092915050565b61377b82612496565b67ffffffffffffffff811115613794576137936127d3565b5b61379e82546129f0565b6137a98282856136e5565b600060209050601f8311600181146137dc57600084156137ca578287015190505b6137d48582613756565b86555061383c565b601f1984166137ea86612e61565b60005b82811015613812578489015182556001820191506020850194506020810190506137ed565b8683101561382f578489015161382b601f891682613738565b8355505b6001600288020188555050505b505050505050565b6000606082019050818103600083015261385e81866124ed565b905061386d60208301856126c6565b61387a60408301846125dd565b949350505050565b600061388d82612548565b915061389883612548565b92508282039050818111156138b0576138af613473565b5b92915050565b600081519050919050565b600082825260208201905092915050565b60006138dd826138b6565b6138e781856138c1565b93506138f78185602086016124b2565b613900816124dc565b840191505092915050565b600060808201905061392060008301876125dd565b61392d60208301866125dd565b61393a60408301856126c6565b818103606083015261394c81846138d2565b905095945050505050565b60008151905061396681612407565b92915050565b600060208284031215613982576139816123d1565b5b600061399084828501613957565b91505092915050565b7f4552433732313a206d696e7420746f20746865207a65726f2061646472657373600082015250565b60006139cf6020836124a1565b91506139da82613999565b602082019050919050565b600060208201905081810360008301526139fe816139c2565b9050919050565b7f4552433732313a20746f6b656e20616c7265616479206d696e74656400000000600082015250565b6000613a3b601c836124a1565b9150613a4682613a05565b602082019050919050565b60006020820190508181036000830152613a6a81613a2e565b905091905056fe4142434445464748494a4b4c4d4e4f505152535455565758595a6162636465666768696a6b6c6d6e6f707172737475767778797a303132333435363738392b2f416e204e465420772f20494420257320686173206265656e206d696e746564206279202573a2646970667358221220a04218480f860ae1d7b43f0295d7052e533e51e9f29dbf9a0607ba17abefe23764736f6c634300081100333c73766720786d6c6e733d27687474703a2f2f7777772e77332e6f72672f323030302f73766727207072657365727665417370656374526174696f3d27784d696e594d696e206d656574272076696577426f783d273020302033353020333530273e3c7374796c653e2e62617365207b2066696c6c3a2077686974653b20666f6e742d66616d696c793a2073657269663b20666f6e742d73697a653a20323470783b207d3c2f7374796c653e3c726563742077696474683d273130302527206865696768743d2731303025272066696c6c3d27626c61636b27202f3e3c7465787420783d273530252720793d273530252720636c6173733d27626173652720646f6d696e616e742d626173656c696e653d276d6964646c652720746578742d616e63686f723d276d6964646c65273e",
  "linkReferences": {},
  "deployedLinkReferences": {}
}